:100000000C9464000C9481000C9481000C94810089
:100010000C9481000C9481000C9481000C9481005C
:100020000C9481000C9481000C9481000C9481004C
:100030000C9481000C9481000C9481000C9481003C
:100040000C9481000C9481000C9481000C9481002C
:100050000C9400020C9481000C941D020C948100FD
:100060000C9481000C9481000C9481000C9481000C
:100070000C94CC010C9481000C948100084AD73B6D
:100080003BCE016E84BCBFFDC12F3D6C74319ABD67
:1000900056833DDA3D00C77F11BED9E4BB4C3E918B
:1000A0006BAAAABE000000803F05A84CCDB2D44E7A
:1000B000B93836A9020C50B9918688083CA6AAAA7C
:1000C0002ABE000000803F0011241FBECFEFD0E108
:1000D000DEBFCDBF13E0A0E0B1E0EEEAF6E102C082
:1000E00005900D92A43FB107D9F714E0A4EFB3E057
:1000F00001C01D92A231B107E1F70E9488040C945F
:10010000550B0C940000882311F02A9A01C02A98FC
:100110002B98862F0E9454052B9A089529988DE0DC
:100120008A95F1F70000299A8FE19EE40197F1F793
:1001300000C0000080E061E20E94830080E066EB86
:100140000E94830080E064E00E94830080E064E11C
:100150000E94830080E060E20E94830080E06CE007
:100160000E94830008950F931F93CF93DF93082F6E
:1001700081E060E00E948300202F30E02052304078
:10018000E901CC0FDD1FCC0FDD1FC20FD31FCD5EE9
:10019000DD4F85E0089F8001112408581E4F6991AA
:1001A00081E00E948300C017D107C9F781E060E0B9
:1001B0000E948300DF91CF911F910F910895EF92DC
:1001C000FF92CF93DF93E82EE7017E01F92EE7013E
:1001D00002C00E94B30089918823D9F7DF91CF91A3
:1001E000FF90EF9008950F931F93CF93DF93082F05
:1001F000192FC0E0D0E0F80161918F0181E00E94E9
:1002000083002196F1E0C83FDF07A9F7DF91CF9186
:100210001F910F9108951F93162F682F606880E03B
:100220000E948300612F606880E00E9483001F911C
:1002300008951F93162F682F606880E00E94830046
:10024000612F606480E00E9483001F910895CF9326
:10025000DF93C8EFD1E081E060E00E948300219746
:10026000D1F780E060E00E941901DF91CF910895FD
:10027000EF92FF920F931F932FEF30E0281B390B63
:100280002138310594F44AE250E0249FC001259FB3
:10029000900D349F900D112460E870E00E944D088D
:1002A0000AE2061B2AE2E22E13C046ED5FEF249F0E
:1002B000C001259F900D349F900D11248A52964DB8
:1002C00060E870E00E944D089AE2E92EE60E0AE22C
:1002D00010E018C0812F6F2D0E941901011710F432
:1002E0001E1510F01A3219F481E06FEF02C081E0A0
:1002F00060E00E948300F3948F2D843059F71F5FD4
:10030000143519F0FF24F394E5CF1F910F91FF905E
:10031000EF9008951F9318E18AE2612F0E9419015E
:1003200081E06FEF0E9483001F5F1B31A9F71F91CF
:1003300008958FEB84B98FE185B917B818B81AB84A
:100340001BB808958091C00087FFFCCF8091C60044
:1003500090E0089597FF0EC0909581959F4F9695D8
:10036000982F88279795879564EB70E00E944D0839
:10037000609509C09695982F88279795879564EB87
:1003800070E00E944D08862F08959091C80095FF57
:10039000FCCF8093CE0008951F920F920FB60F925C
:1003A00011248F93EF93FF938091CE0080930204EA
:1003B00080910204843231F41092F80381E080933A
:1003C0000A040FC0E091F803FF27E7FDF095809144
:1003D0000204E75FFE4F80838091F8038F5F809374
:1003E000F803FF91EF918F910F900FBE0F901F9028
:1003F00018959091C00095FFFCCF8093C60008959A
:100400001F920F920FB60F9211248F939F9381E04A
:100410008093FF038091C60080930904289A8FE39C
:100420009CE90197F1F700C0000028989F918F91F7
:100430000F900FBE0F901F9018951F920F920FB63E
:100440000F9211240F900FBE0F901F90189583E309
:1004500090E09093C5008093C4008EE08093C2002A
:1004600088E18093C100089583E390E09093CD00EC
:100470008093CC001092C80080E98093C90086E088
:100480008093CA000895681714F4861B06C08091F3
:100490000D04909109048150891B809301040895F3
:1004A00010920F0410920E04109208041092070488
:1004B0001092FD0310921004109204041092030491
:1004C00088E58093000480E090E0FC01E75FFE4F48
:1004D00020812C3259F420910304309104042F5FC1
:1004E0003F4F30930404209303041BC02091030466
:1004F0003091040421303105A1F42091FD0312163E
:1005000084F02081209300042081332727FD30953B
:1005100030930F0420930E042091FD032F5F20934E
:10052000FD0301968436910581F608952BED3FE099
:1005300049E450E40E94790720E030E044E353E4CA
:100540000E942A06089520E030E044E353E40E942C
:1005500079072BED3FE049E450E40E942A06089514
:100560002F923F924F925F926F927F928F929F92C3
:10057000AF92BF92CF92DF92EF92FF920F931F93B1
:10058000DF93CF93CDB7DEB760970FB6F894DEBF99
:100590000FBECDBF6D837E838F839887270138017F
:1005A000C601B5010E9460052BED3FE049E450E42F
:1005B0000E94790720E030E044E353E40E942A06D9
:1005C000D62E372E282E99836D817E818F81988536
:1005D0002BED3FE049E450E40E94790720E030E051
:1005E00044E353E40E942A067B018C01C301B2015B
:1005F0002BED3FE049E450E40E94790720E030E031
:1006000044E353E40E942A06962EA72EB82EC92E44
:1006100029816D2D732D822D922F0E94DC079B0165
:10062000AC01692D7A2D8B2D9C2D2D873E874F8710
:10063000588B0E9427062B013C016E2D7F2D802FA9
:10064000912F0E9427066D837E838F839887692D63
:100650007A2D8B2D9C2D0E94DC074B015C016E2DA9
:100660007F2D802F912F0E94DC0769877A878B87E7
:100670009C8709816D2D732D822D902F0E94270656
:100680007B018C012D853E854F855889CA01B901B2
:10069000A30192010E94790769837A838B839C83EB
:1006A0006D817E818F819885A50194010E947907D3
:1006B0005B016C0169857A858B859C85A30192011C
:1006C0000E947907A80197010E9479079B01AC015C
:1006D000C601B5010E9460059B01AC0169817A8168
:1006E0008B819C810E94D40520E030E044E353E4F8
:1006F0000E9479072BED3FE049E450E40E942A066E
:1007000060960FB6F894DEBF0FBECDBFCF91DF91DC
:100710001F910F91FF90EF90DF90CF90BF90AF901F
:100720009F908F907F906F905F904F903F902F9011
:1007300008952F923F924F925F926F927F928F9285
:100740009F92AF92BF92CF92DF92EF92FF920F9360
:100750001F93DF93CF93CDB7DEB728970FB6F894EA
:10076000DEBF0FBECDBF3B014C0129833A834B83D3
:100770005C832BED3FE049E450E40E947907562E5C
:10078000472E1C01C801B7012BED3FE049E450E4BE
:100790000E9479076D837E838F839887C801B70194
:1007A000A40193010E9460052BED3FE049E450E471
:1007B0000E94790720E030E044E353E40E942A06D7
:1007C00020E030E040E05FE30E9479070E94DC0710
:1007D0007B018C01C601B50129813A814B815C8185
:1007E0000E9460052BED3FE049E450E40E94790748
:1007F00020E030E044E353E40E942A0620E030E0A9
:1008000040E05FE30E9479070E94DC075B016C0116
:10081000A201652F742F822D932D20E030E044E358
:1008200053E40E942A060E9427061B012C015D81C9
:100830004E813F812885652F742F832F922F20E0D2
:1008400030E044E353E40E942A060E9427063B015D
:100850004C01C801B701A80197010E9479077B01EB
:100860008C01C601B501A60195010E947907A2017C
:1008700091010E947907A40193010E9479079B01CD
:10088000AC01C801B7010E9461052B01682EA92E99
:10089000762F272F352D462D5A2DCA01B9010E94DA
:1008A000E6077B018C0160E070E080E89FE3242D87
:1008B000352D462D5A2D0E9460050E94E6079B01AA
:1008C000AC01C801B7010E94D4059B01AC010E9494
:1008D00061052DEC38E147EC55E40E947907289634
:1008E0000FB6F894DEBF0FBECDBFCF91DF911F9141
:1008F0000F91FF90EF90DF90CF90BF90AF909F90BF
:100900008F907F906F905F904F903F902F900895C1
:100910006F927F928F929F92AF92BF92CF92DF920F
:10092000EF92FF920F931F93DF93CF93CDB7DEB774
:100930002C970FB6F894DEBF0FBECDBF6AE077EDFF
:1009400080E592E42CEE31E548EB5DE30F2EFDEC03
:10095000EF2EFCECFF2EF0E50F2FF2E41F2FF02D11
:1009600059016A010E9499033B014C016AE077ED4D
:1009700080E592E4A60195010E94B0027B018C0102
:10098000C401B30120E030E04AE754E40E94790753
:100990000E9492066B01C801B7010E949206DC0119
:1009A000CB010E94AA0180930D04109206041092BC
:1009B00005041092F6030E94990183E00E945005FD
:1009C0000E948E0028988FEF99E6A8E18150904010
:1009D000A040E1F700C000000E9427028091C10002
:1009E00080648093C1008091C10080688093C100C1
:1009F0000E9427018FB780688FBF80E00E948A0124
:100A00008E010F5F1F4F50E0E52E51E0F52E82E181
:100A10000E94F9018091FF03882301F11092FF03E6
:100A200090910D0480910904891744F480910D047C
:100A300020910904992787FD909509C02091090408
:100A400080910D04992787FD909581509F4F332702
:100A500027FD3095821B930B0E94380180E065E0F2
:100A60000E94190100D000D000D0EDB7FEB731963A
:100A7000ADB7BEB712961C930E931197F382E28224
:100A8000D582C4820E9474088DB79EB706960FB6B1
:100A9000F8949EBF0FBE8DBFC8010E94DF00B7CF84
:100AA000837080658CBD08958EBD0DB407FEFDCFAB
:100AB00008958FEF8EBD0DB407FEFDCF8EB508955E
:100AC0005058BB27AA270ED0C2C18BD130F090D18D
:100AD00020F031F49F3F11F41EF45BC10EF4E09559
:100AE000E7FB51C1E92FD5D180F3BA17620773072D
:100AF0008407950718F071F49EF5EDC10EF4E095AA
:100B00000B2EBA2FA02D0B01B90190010C01CA01C7
:100B1000A0011124FF27591B99F0593F50F4503E72
:100B200068F11A16F040A22F232F342F4427585F64
:100B3000F3CF469537952795A795F0405395C9F77C
:100B40007EF41F16BA0B620B730B840BBAF0915034
:100B5000A1F0FF0FBB1F661F771F881FC2F70EC0D3
:100B6000BA0F621F731F841F48F4879577956795A6
:100B7000B795F7959E3F08F0B3CF9395880F08F08F
:100B80009927EE0F9795879508952BD158F080E817
:100B900091E009F49EEF2CD128F040E851E059F49F
:100BA0005EEF09C0F6C097C1E92FE07872D168F313
:100BB000092E052AC1F3261737074807590738F0C9
:100BC0000E2E07F8E02569F0E025E0640AC0EF6327
:100BD00007F8009407FADB01B9019D01DC01CA01A5
:100BE000AD01EF9346D033D10AD05F91552331F058
:100BF0002BED3FE049E450FD49EC63CF0895DF93CE
:100C0000DD27B92FBF7740E85FE3161617064807C0
:100C10005B0710F4D92F66D19F938F937F936F93C7
:100C200013D2ECE7F0E0B8D012D12F913F914F9161
:100C30005F916BD1DD2349F09058A2EA2AED3FE0A5
:100C400049EC5FE3D0785D274DDFDF9100C1D8D05C
:100C5000E3950EC10CD0FBC0CBD040F0C2D030F039
:100C600021F45F3F19F08FC0511136C192C011D1EC
:100C700098F39923C9F35523B1F3951B550BBB2763
:100C8000AA2762177307840738F09F5F5F4F220F10
:100C9000331F441FAA1FA9F333D00E2E3AF0E0E809
:100CA00030D091505040E695001CCAF729D0FE2F55
:100CB00027D0660F771F881FBB1F261737074807E7
:100CC000AB07B0E809F0BB0B802DBF01FF2793589D
:100CD0005F4F2AF09E3F510568F055C0FDC05F3F51
:100CE000ECF3983EDCF3869577956795B795F79585
:100CF0009F5FC9F7880F911D9695879597F908957D
:100D0000E1E0660F771F881FBB1F62177307840718
:100D1000BA0720F0621B730B840BBA0BEE1F88F727
:100D2000E095089504D06894B111D6C00895B9D063
:100D300088F09F5790F0B92F9927B751A0F0D1F0C4
:100D4000660F771F881F991F1AF0BA95C9F712C04E
:100D5000B13081F0C0D0B1E00895BDC0672F782FC9
:100D60008827B85F39F0B93FCCF3869577956795BA
:100D7000B395D9F73EF490958095709561957F4F26
:100D80008F4F9F4F089597F99F6780E870E060E06C
:100D900008959FEF80EC0895DF93CF931F930F93F7
:100DA000FF92EF92DF927B018C01689405C0DA2EEE
:100DB000EF01ABD0FE01E894A591259135914591C5
:100DC0005591AEF3EF018EDEFE019701A801DA9492
:100DD00079F7DF90EF90FF900F911F91CF91DF9106
:100DE000089500240A941616170618060906089591
:100DF00000240A9412161306140605060895C9CF96
:100E000050D0E8F3E894E0E0BB279F57F0F02AEDDC
:100E10003FE049EC06C0EE0FBB0F661F771F881F2F
:100E200028F0B23A62077307840728F0B25A620BBF
:100E3000730B840BE3959A9572F7803830F49A958A
:100E4000BB0F661F771F881FD2F7904802C1092E7B
:100E50000394000C11F4882352F0BB0F40F4BF2B15
:100E600011F460FF04C06F5F7F4F8F4F9F4F089555
:100E7000EF93E0FF06C0A2EA2AED3FE049EC5FEB0A
:100E800031DEE5DF0F90039401FC9058E9EAF0E0D1
:100E9000F3C057FD9058440F551F59F05F3F71F054
:100EA0004795880F97FB991F61F09F3F79F08795D1
:100EB0000895121613061406551FF2CF4695F1DF5A
:100EC00008C0161617061806991FF1CF86957105EA
:100ED000610508940895E894BB2766277727CB011E
:100EE00097F908959B01AC0160E070E080E89FE312
:100EF000B1CE0BD0ACCF75DF28F07ADF18F0952398
:100F000009F041CF46CF1124E7CFC3DFA0F3959F6F
:100F1000D1F3950F50E0551F629FF001729FBB27E0
:100F2000F00DB11D639FAA27F00DB11DAA1F649F8C
:100F30006627B00DA11D661F829F2227B00DA11D3F
:100F4000621F739FB00DA11D621F839FA00D611DC5
:100F5000221F749F3327A00D611D231F849F600DE6
:100F6000211D822F762F6A2F11249F5750408AF01F
:100F7000E1F088234AF0EE0FFF1FBB1F661F771FAB
:100F8000881F91505040A9F79E3F510570F0FBCE4D
:100F9000A3CF5F3FECF3983EDCF38695779567959A
:100FA000B795F795E7959F5FC1F7FE2B880F911DC9
:100FB0009695879597F908959F9322DF0F9007FCE8
:100FC000EE5F56CF11F40EF4E4CE41C06ADFD0F3E9
:100FD0009923D9F3CEF39F57550B87FF46D00024B2
:100FE000A0E640EA900180585695979528F4805CD9
:100FF000660F771F881F20F026173707480730F441
:10100000621B730B840B202931294A2BA695179458
:101010000794202531254A2758F7660F771F881F28
:1010200020F026173707480730F4620B730B840B48
:10103000200D311D411DA09581F7B901842F9158D4
:10104000880F9695879508959B01AC0152CF9F3FDD
:1010500031F0915020F4879577956795B795880F73
:10106000911D9695879597F9089591505040660F78
:10107000771F881FD2F708959F938F937F936F9365
:10108000FF93EF939B01AC0134DFEF91FF9184DE7E
:101090002F913F914F915F912CCF97FB092E0726FF
:1010A0000AD077FD04D00CD006D000201AF4709539
:1010B00061957F4F0895F6F7909581959F4F08951C
:1010C000AA1BBB1B51E107C0AA1FBB1FA617B7076E
:1010D00010F0A61BB70B881F991F5A95A9F780958A
:1010E0009095BC01CD010895AEE0B0E0EAE7F8E0EC
:1010F0000C942C0B0D891E8986E08C831A8309833E
:101100008FEF9FE79E838D839E01275E3F4FCE0129
:1011100001966F89788DA9010E949708EF81F88563
:10112000E00FF11F10822E96E4E00C94480BACE027
:10113000B0E0EDE9F8E00C941E0B6C011B018A0194
:10114000FC0117821682838181FFD1C12E01089490
:10115000411C511CF6019381F10193FD859193FF90
:1011600081911F01882309F4BEC1853239F493FDB2
:10117000859193FF81911F01853229F490E0B6019A
:101180000E94940AE7CFEE24FF2420E02032B0F43E
:101190008B3269F08C3228F4803251F0833271F452
:1011A0000BC08D3239F0803349F421602CC02260AD
:1011B000246029C0286027C0206125C027FD2CC0DD
:1011C000382F30533A3098F426FF08C08E2D880F00
:1011D000E82EEE0CEE0CE80EE30E15C08F2D880FF6
:1011E000F82EFF0CFF0CF80EF30E20620CC08E32AE
:1011F00021F426FD78C1206406C08C3611F42068E5
:1012000002C0883649F4F10193FD859193FF8191E5
:101210001F01882309F0BACF982F9554933018F006
:101220009052933028F40C5F1F4FFFE3F9830DC0F9
:10123000833631F0833771F0833509F060C022C006
:10124000F801808189830E5F1F4F420171E0A72E54
:10125000B12C16C062E0662E712C600E711EF80172
:101260008080918026FF03C06E2D70E002C06FEF7A
:101270007FEFC4012C870E94890A5C0183012C85C1
:101280002F7717C052E0652E712C600E711EF80189
:101290008080918026FF03C06E2D70E002C06FEF4A
:1012A0007FEFC4012C870E947E0A5C012C85206898
:1012B000830123FD20C008C080E290E0B6012C87A6
:1012C0000E94940AFA942C858F2D90E0A816B906F6
:1012D00098F311C0F40127FD859127FF81914F01FB
:1012E00090E0B6012C870E94940A2C85F110FA94A4
:1012F0000894A108B108A114B10461F7F1C08436C3
:1013000011F0893649F527FF08C0F8016081718125
:10131000828193810C5F1F4F09C0F8016081718148
:10132000882777FD8095982F0E5F1F4F4FE6B42ECC
:10133000B22297FF09C090958095709561957F4F77
:101340008F4F9F4FF0E8BF2AA2012AE030E00E94B1
:10135000C00A782E741845C0853731F43FEEB32E9D
:10136000B2222AE030E025C099EFB92EB2228F36A2
:10137000C1F0803720F4883509F0B5C00DC0803742
:1013800021F0883709F0AFC002C020E1B22AB4FED4
:101390000BC084E0B82A08C0B4FE09C0E6E0BE2A4B
:1013A00006C028E030E005C020E130E002C020E1C6
:1013B00032E0B7FE08C0F8016081718182819381BB
:1013C0000C5F1F4F07C0F8016081718180E090E0E1
:1013D0000E5F1F4FA2010E94C00A782E7418FFE70B
:1013E000BF22B6FE0BC02EEFB2227E1438F4B4FE3C
:1013F00007C0B2FC05C08FEEB82202C0A72C01C006
:10140000AE2C8B2D90E0B4FE0DC0FE01E70DF11D5A
:101410002081203319F4E9EEBE2209C0A394B2FE64
:1014200006C004C086789070009709F0A3948B2CB6
:101430009924B3FC14C0B0FE0FC0AF1428F4E72CFD
:10144000EF0CEA18AF2C08C0E72C06C080E290E051
:10145000B6010E94940AA394AF14C0F304C0AF1461
:1014600010F4FA1801C0FF2484FE0FC080E390E05E
:10147000B6010E94940A82FE1FC081FE03C088E567
:1014800090E010C088E790E00DC0C40186789070AD
:10149000009791F081FC02C080E201C08BE2B7FCB2
:1014A0008DE290E0B6010E94940A06C080E390E0CD
:1014B000B6010E94940AEA947E14C0F37A94F20171
:1014C000E70DF11D808190E0B6010E94940A77201B
:1014D000A9F706C080E290E0B6010E94940AFA944F
:1014E000FF20C1F737CEF6012681378102C02FEFEA
:1014F0003FEFC9012C96E2E10C943A0BFC010590F8
:10150000615070400110D8F7809590958E0F9F1F05
:101510000895FC016150704001900110D8F780954A
:1015200090958E0F9F1F08950F931F93CF93DF9376
:101530008C01EB018B8181FF1BC082FF0DC02E81CE
:101540003F818C819D812817390764F4E881F981F6
:101550000193F983E88306C0E885F985802F099512
:10156000009731F48E819F8101969F838E8302C004
:101570000FEF1FEFC801DF91CF911F910F910895D9
:10158000FA01AA27283051F1203181F1E8946F93B4
:101590006E7F6E5F7F4F8F4F9F4FAF4FB1E03ED05A
:1015A000B4E03CD0670F781F891F9A1FA11D680FF8
:1015B000791F8A1F911DA11D6A0F711D811D911D2B
:1015C000A11D20D009F468943F912AE0269F1124A0
:1015D0003019305D3193DEF6CF010895462F477004
:1015E000405D4193B3E00FD0C9F7F6CF462F4F705F
:1015F000405D4A3318F0495D31FD4052419302D0BD
:10160000A9F7EACFB4E0A695979587957795679562
:10161000BA95C9F700976105710508959B01AC0162
:101620000A2E06945795479537952795BA95C9F789
:10163000620F731F841F951FA01D08952F923F9264
:101640004F925F926F927F928F929F92AF92BF92D2
:10165000CF92DF92EF92FF920F931F93CF93DF937E
:10166000CDB7DEB7CA1BDB0B0FB6F894DEBF0FBEDB
:10167000CDBF09942A88398848885F846E847D8428
:101680008C849B84AA84B984C884DF80EE80FD802A
:101690000C811B81AA81B981CE0FD11D0FB6F894A0
:0E16A000DEBF0FBECDBFED010895F894FFCF61
:1016AE0044286D293A202564000000000000000047
:1016BE00000000000000000000000000000000001C
:1016CE00000000000000000000000000000000000C
:1016DE0000000000000000000000000000000000FC
:1016EE0000000000000000000000000000000000EC
:1016FE0000000000000000000000000000000000DC
:10170E0000000000000000000000000000000000CB
:10171E0000000000000000000000000000000000BB
:10172E0000000000000000000000000000000000AB
:10173E00000000000000000000000000000000009B
:10174E00000000000000000000000000000000008B
:10175E00000000000000000000000000000000007B
:10176E00000000000000000000000000000000006B
:10177E00000000000000000000000000000000005B
:10178E00000000000000000000000000000000004B
:10179E00000000000000000000000000000000003B
:1017AE0000000000000000000048454C4C4F475020
:1017BE00474C4C000000000000005F0000000700D6
:1017CE000700147F147F14242A7F2A12231308641F
:1017DE006236495522500005030000001C224100CC
:1017EE000041221C0014083E081408083E08080098
:1017FE005030000008080808080060600000201043
:10180E000804023E5149453E00427F40004261516C
:10181E0049462141454B311814127F102745454545
:10182E00393C4A494930017109050336494949365F
:10183E00064949291E0036360000005636000008BB
:10184E00142241001414141414004122140802012D
:10185E00510906324979413E7E1111117E7F494967
:10186E0049363E414141227F4141221C7F4949492F
:10187E00417F090909013E4149497A7F0808087FDD
:10188E0000417F41002040413F017F081422417FEB
:10189E00404040407F020C027F7F0408107F3E4193
:1018AE0041413E7F090909063E4151215E7F0919DA
:1018BE002946464949493101017F01013F404040D7
:1018CE003F1F2040201F3F4038403F6314081463E1
:1018DE0007087008076151494543007F41410002E6
:1018EE00040810200041417F000402010204404020
:1018FE00404040000102040020545454787F484474
:10190E0044383844444420384444487F385454546E
:10191E0018087E0901020C5252523E7F08040478C8
:10192E0000447D40002040443D007F1028440000CC
:10193E00417F40007C041804787C08040478384405
:10194E004444387C14141408081414187C7C0804BD
:10195E0004084854545420043F4440203C40402046
:10196E007C1C2040201C3C4030403C442810284425
:10197E000C5050503C4464544C4400083641000016
:10198E00007F000000413608001008081008784655
:04199E004146780046
:00000001FF
