:100000000C943E000C945B000C945B000C945B0021
:100010000C945B000C945B000C945B000C945B00F4
:100020000C945B000C945B000C945B000C945B00E4
:100030000C945B000C945B000C945B000C945B00D4
:100040000C945B000C945B000C945B000C945B00C4
:100050000C942F020C945B000C944C020C945B00EB
:100060000C945B000C945B000C945B000C945B00A4
:100070000C9489010C945B000C945B0011241FBE4E
:10008000CFEFD0E1DEBFCDBF13E0A0E0B1E0EEE204
:10009000FCE002C005900D92AE32B107D9F713E033
:1000A000AEE2B3E001C01D92A534B107E1F70E94B2
:1000B00072020C9415060C940000882311F02A9A01
:1000C00001C02A982B98862F0E9401032B9A08952D
:1000D00029988DE08A95F1F70000299A8FE19EE436
:1000E0000197F1F700C0000080E061E20E945D002E
:1000F00080E066EB0E945D0080E064E00E945D00AD
:1001000080E064E10E945D0080E060E20E945D00AA
:1001100080E06CE00E945D0008950F931F93CF93E1
:10012000DF93082F81E060E00E945D00202F30E027
:1001300020523040E901CC0FDD1FCC0FDD1FC20F74
:10014000D31FC25BDE4F85E0089F800111240D5450
:100150001F4F699181E00E945D00C017D107C9F768
:1001600081E060E00E945D00DF91CF911F910F91CF
:100170000895EF92FF92CF93DF93E82EE7017E017F
:10018000F92EE70102C00E948D0089918823D9F7DA
:10019000DF91CF91FF90EF9008950F931F93CF932E
:1001A000DF93082F192FC0E0D0E0F80161918F0193
:1001B00081E00E945D002196F1E0C83FDF07A9F7CA
:1001C000DF91CF911F910F9108951F93162F682FE4
:1001D000606880E00E945D00612F606880E00E949E
:1001E0005D001F9108951F93162F682F606880E0AF
:1001F0000E945D00612F606480E00E945D001F919D
:100200000895CF93DF93C8EFD1E081E060E00E94D2
:100210005D002197D1F780E060E00E94F300DF915C
:10022000CF910895FF920F931F9380913F03909178
:10023000400381389105B4F440913F03509140034D
:100240002AE230E0429FC001439F900D529F900DE3
:10025000112460E870E00E940D030AE2061B2AE206
:10026000F22E17C040913F035091400326ED3FEF1F
:10027000429FC001439F900D529F900D11248A52BE
:10028000964D60E870E00E940D039AE2F92EF60E9A
:100290000AE210E0812F63E00E94F300011710F4DE
:1002A0001F1510F01A3219F481E06FEF02C081E0DF
:1002B00060E00E945D001F5F143561F71F910F9190
:1002C000FF9008951F9318E18AE2612F0E94F300C6
:1002D00081E06FEF0E945D001F5F1B31A9F71F9146
:1002E00008958FEB84B98FE185B917B818B81AB89B
:1002F0001BB808958091C00087FFFCCF8091C60095
:1003000090E008959091C80095FFFCCF8093CE00B7
:1003100008951F920F920FB60F9211242F933F93BF
:100320008F939F93EF93FF938091CE008093380338
:1003300080913803843299F410923E0310923D0369
:1003400080934103109232031092310310923A03CA
:100350001092390310923603109235036EC08091CB
:1003600038038C32A1F4109234031092330380933B
:10037000410310923203109231038091390390911E
:100380003A03019690933A038093390356C08091C3
:1003900041038432D9F58091310390913203853045
:1003A0009105A4F5E0913103F09132038091380377
:1003B000EC5BFE4F80838091310390913203843057
:1003C0009105D1F480E090E0FC01EC5BFE4F3081C0
:1003D000FC01E75BFE4F2081321751F40196853016
:1003E000910591F781E090E0909336038093350377
:1003F00010923A03109239038091310390913203A5
:100400000196909332038093310317C08091350396
:10041000909136038130910581F480913903909158
:100420003A038130910549F480914203909143034E
:1004300001969093430380934203FF91EF919F9124
:100440008F913F912F910F900FBE0F901F90189595
:100450009091C00095FFFCCF8093C60008951F9235
:100460000F920FB60F9211248F939F938091C60025
:1004700090E09093400380933F03289A8FE19EE49D
:100480000197F1F700C0000028989F918F910F907D
:100490000FBE0F901F9018951F920F920FB60F92DC
:1004A00011240F900FBE0F901F90189583E390E0DA
:1004B0009093C5008093C4008EE08093C20088E1D1
:1004C0008093C100089583E390E09093CD008093E2
:1004D000CC00EAECF0E080818860808388E1809342
:1004E000C9000895EF92FF920F931F93DF93CF936C
:1004F000CDB7DEB72C970FB6F894DEBF0FBECDBFD9
:1005000010923A031092390310923C0310923B036D
:1005100010922F0310922E030E94710183E00E941B
:10052000FD020E94680028988FEF99E6A8E18150AB
:100530009040A040E1F700C000000E945602809168
:10054000C10080648093C1008091C1008068809365
:10055000C1000E9463028091C90080648093C90039
:100560008091C90080688093C9000E9401018FB703
:1005700080688FBF8E010F5F1F4F30E0E32E31E0A8
:10058000F32E82E10E94280280E065E00E94F300E1
:10059000209142033091430380913D0390913E03AB
:1005A000ADB7BEB718970FB6F894BEBF0FBEADBFBC
:1005B000EDB7FEB7319612961C930E931197F38206
:1005C000E28235832483978386830E9434034DB768
:1005D0005EB7485F5F4F0FB6F8945EBF0FBE4DBF6A
:1005E000C8010E94B9008FEF90E7A2E081509040CF
:1005F000A040E1F700C00000C4CF837080658CBDCF
:1006000008958EBD0DB407FEFDCF08958FEF8EBD0A
:100610000DB407FEFDCF8EB5089597FB092E072672
:100620000AD077FD04D00CD006D000201AF47095C3
:1006300061957F4F0895F6F7909581959F4F0895A6
:10064000AA1BBB1B51E107C0AA1FBB1FA617B707F8
:1006500010F0A61BB70B881F991F5A95A9F7809514
:100660009095BC01CD010895AEE0B0E0EAE3F3E07F
:100670000C94EC050D891E8986E08C831A8309830E
:100680008FEF9FE79E838D839E01275E3F4FCE01B4
:1006900001966F89788DA9010E945703EF81F88533
:1006A000E00FF11F10822E96E4E00C940806ACE0F7
:1006B000B0E0EDE5F3E00C94DE056C011B018A016E
:1006C000FC0117821682838181FFD1C12E0108941B
:1006D000411C511CF6019381F10193FD859193FF1B
:1006E00081911F01882309F4BEC1853239F493FD3D
:1006F000859193FF81911F01853229F490E0B60125
:100700000E945405E7CFEE24FF2420E02032B0F40D
:100710008B3269F08C3228F4803251F0833271F4DC
:100720000BC08D3239F0803349F421602CC0226037
:10073000246029C0286027C0206125C027FD2CC067
:10074000382F30533A3098F426FF08C08E2D880F8A
:10075000E82EEE0CEE0CE80EE30E15C08F2D880F80
:10076000F82EFF0CFF0CF80EF30E20620CC08E3238
:1007700021F426FD78C1206406C08C3611F420686F
:1007800002C0883649F4F10193FD859193FF819170
:100790001F01882309F0BACF982F9554933018F091
:1007A0009052933028F40C5F1F4FFFE3F9830DC084
:1007B000833631F0833771F0833509F060C022C091
:1007C000F801808189830E5F1F4F420171E0A72EDF
:1007D000B12C16C062E0662E712C600E711EF801FD
:1007E0008080918026FF03C06E2D70E002C06FEF05
:1007F0007FEFC4012C870E9449055C0183012C8591
:100800002F7717C052E0652E712C600E711EF80113
:100810008080918026FF03C06E2D70E002C06FEFD4
:100820007FEFC4012C870E943E055C012C85206867
:10083000830123FD20C008C080E290E0B6012C8730
:100840000E945405FA942C858F2D90E0A816B906C5
:1008500098F311C0F40127FD859127FF81914F0185
:1008600090E0B6012C870E9454052C85F110FA9473
:100870000894A108B108A114B10461F7F1C084364D
:1008800011F0893649F527FF08C0F80160817181B0
:10089000828193810C5F1F4F09C0F80160817181D3
:1008A000882777FD8095982F0E5F1F4F4FE6B42E57
:1008B000B22297FF09C090958095709561957F4F02
:1008C0008F4F9F4FF0E8BF2AA2012AE030E00E943C
:1008D0008005782E741845C0853731F43FEEB32E6D
:1008E000B2222AE030E025C099EFB92EB2228F362D
:1008F000C1F0803720F4883509F0B5C00DC08037CD
:1009000021F0883709F0AFC002C020E1B22AB4FE5E
:100910000BC084E0B82A08C0B4FE09C0E6E0BE2AD5
:1009200006C028E030E005C020E130E002C020E150
:1009300032E0B7FE08C0F801608171818281938145
:100940000C5F1F4F07C0F8016081718180E090E06B
:100950000E5F1F4FA2010E948005782E7418FFE7DA
:10096000BF22B6FE0BC02EEFB2227E1438F4B4FEC6
:1009700007C0B2FC05C08FEEB82202C0A72C01C090
:10098000AE2C8B2D90E0B4FE0DC0FE01E70DF11DE5
:100990002081203319F4E9EEBE2209C0A394B2FEEF
:1009A00006C004C086789070009709F0A3948B2C41
:1009B0009924B3FC14C0B0FE0FC0AF1428F4E72C88
:1009C000EF0CEA18AF2C08C0E72C06C080E290E0DC
:1009D000B6010E945405A394AF14C0F304C0AF1431
:1009E00010F4FA1801C0FF2484FE0FC080E390E0E9
:1009F000B6010E94540582FE1FC081FE03C088E537
:100A000090E010C088E790E00DC0C4018678907037
:100A1000009791F081FC02C080E201C08BE2B7FC3C
:100A20008DE290E0B6010E94540506C080E390E09C
:100A3000B6010E945405EA947E14C0F37A94F20140
:100A4000E70DF11D808190E0B6010E9454057720EA
:100A5000A9F706C080E290E0B6010E945405FA941E
:100A6000FF20C1F737CEF6012681378102C02FEF74
:100A70003FEFC9012C96E2E10C94FA05FC010590C8
:100A8000615070400110D8F7809590958E0F9F1F90
:100A90000895FC016150704001900110D8F78095D5
:100AA00090958E0F9F1F08950F931F93CF93DF9301
:100AB0008C01EB018B8181FF1BC082FF0DC02E8159
:100AC0003F818C819D812817390764F4E881F98181
:100AD0000193F983E88306C0E885F985802F09959D
:100AE000009731F48E819F8101969F838E8302C08F
:100AF0000FEF1FEFC801DF91CF911F910F91089564
:100B0000FA01AA27283051F1203181F1E8946F933E
:100B10006E7F6E5F7F4F8F4F9F4FAF4FB1E03ED0E4
:100B2000B4E03CD0670F781F891F9A1FA11D680F82
:100B3000791F8A1F911DA11D6A0F711D811D911DB5
:100B4000A11D20D009F468943F912AE0269F11242A
:100B50003019305D3193DEF6CF010895462F47708E
:100B6000405D4193B3E00FD0C9F7F6CF462F4F70E9
:100B7000405D4A3318F0495D31FD4052419302D047
:100B8000A9F7EACFB4E0A6959795879577956795ED
:100B9000BA95C9F700976105710508959B01AC01ED
:100BA0000A2E06945795479537952795BA95C9F714
:100BB000620F731F841F951FA01D08952F923F92EF
:100BC0004F925F926F927F928F929F92AF92BF925D
:100BD000CF92DF92EF92FF920F931F93CF93DF9309
:100BE000CDB7DEB7CA1BDB0B0FB6F894DEBF0FBE66
:100BF000CDBF09942A88398848885F846E847D84B3
:100C00008C849B84AA84B984C884DF80EE80FD80B4
:100C10000C811B81AA81B981CE0FD11D0FB6F8942A
:0E0C2000DEBF0FBECDBFED010895F894FFCFEB
:100C2E004C41543A2564204C4F4E3A2564004142C3
:100C3E00434445464748494A4B4C4D4E4F505152FE
:100C4E00535455565758595A004142434445464706
:100C5E0048494A4B4C4D4E4F50515253545556578E
:100C6E0058595A0048454C4C4F4750474C4C000081
:100C7E0000000000005F00000007000700147F1452
:100C8E007F14242A7F2A12231308646236495522C0
:100C9E00500005030000001C2241000041221C00F0
:100CAE0014083E081408083E0808005030000008DA
:100CBE0008080808006060000020100804023E5179
:100CCE0049453E00427F400042615149462141451F
:100CDE004B311814127F1027454545393C4A494976
:100CEE003001710905033649494936064949291E1D
:100CFE00003636000000563600000814224100145B
:100D0E001414141400412214080201510906324928
:100D1E0079413E7E1111117E7F494949363E41414E
:100D2E0041227F4141221C7F494949417F090909DE
:100D3E00013E4149497A7F0808087F00417F410002
:100D4E002040413F017F081422417F404040407FB8
:100D5E00020C027F7F0408107F3E4141413E7F0915
:100D6E000909063E4151215E7F0919294646494926
:100D7E00493101017F01013F4040403F1F2040208B
:100D8E001F3F4038403F631408146307087008077C
:100D9E006151494543007F41410002040810200083
:100DAE0041417F00040201020440404040400001E6
:100DBE0002040020545454787F4844443838444444
:100DCE004420384444487F3854545418087E09014E
:100DDE00020C5252523E7F0804047800447D4000BB
:100DEE002040443D007F1028440000417F40007C9D
:100DFE00041804787C0804047838444444387C147D
:100E0E00141408081414187C7C080404084854545C
:100E1E005420043F4440203C4040207C1C20402075
:100E2E001C3C4030403C44281028440C5050503C50
:100E3E004464544C44000836410000007F0000001A
:0E0E4E00413608001008081008784641467822
:00000001FF
