:100000000C943E000C945B000C945B000C945B0021
:100010000C945B000C945B000C945B000C945B00F4
:100020000C945B000C945B000C945B000C945B00E4
:100030000C945B000C945B000C945B000C945B00D4
:100040000C945B000C945B000C945B000C945B00C4
:100050000C94DA010C945B000C9407020C945B0086
:100060000C945B000C945B000C945B000C945B00A4
:100070000C9489010C945B000C945B0011241FBE4E
:10008000CFEFD0E1DEBFCDBF12E0A0E0B1E0E2E50E
:10009000FCE002C005900D92A83FB107D9F713E02C
:1000A000A8EFB2E001C01D92A837B107E1F70E94A6
:1000B00073020C9427060C940000882311F02A9AEE
:1000C00001C02A982B98862F0E9413032B9A08951B
:1000D00029988DE08A95F1F70000299A8FE19EE436
:1000E0000197F1F700C0000080E061E20E945D002E
:1000F00080E066EB0E945D0080E064E00E945D00AD
:1001000080E064E10E945D0080E060E20E945D00AA
:1001100080E06CE00E945D0008950F931F93CF93E1
:10012000DF93082F81E060E00E945D00202F30E027
:1001300020523040E901CC0FDD1FCC0FDD1FC20F74
:10014000D31FC95EDE4F85E0089F8001112404584B
:100150001F4F699181E00E945D00C017D107C9F768
:1001600081E060E00E945D00DF91CF911F910F91CF
:100170000895EF92FF92CF93DF93E82EE7017E017F
:10018000F92EE70102C00E948D0089918823D9F7DA
:10019000DF91CF91FF90EF9008950F931F93CF932E
:1001A000DF93082F192FC0E0D0E0F80161918F0193
:1001B00081E00E945D002196F1E0C83FDF07A9F7CA
:1001C000DF91CF911F910F9108951F93162F682FE4
:1001D000606880E00E945D00612F606880E00E949E
:1001E0005D001F9108951F93162F682F606880E0AF
:1001F0000E945D00612F606480E00E945D001F919D
:100200000895CF93DF93C8EFD1E081E060E00E94D2
:100210005D002197D1F780E060E00E94F300DF915C
:10022000CF910895FF920F931F9380910B039091AC
:100230000C0381389105B4F440910B0350910C03E9
:100240002AE230E0429FC001439F900D529F900DE3
:10025000112460E870E00E941F030AE2061B2AE2F4
:10026000F22E17C040910B0350910C0326ED3FEF87
:10027000429FC001439F900D529F900D11248A52BE
:10028000964D60E870E00E941F039AE2F92EF60E88
:100290000AE210E0812F63E00E94F300011710F4DE
:1002A0001F1510F01A3219F481E06FEF02C081E0DF
:1002B00060E00E945D001F5F143561F71F910F9190
:1002C000FF9008951F9318E18AE2612F0E94F300C6
:1002D00081E06FEF0E945D001F5F1B31A9F71F9146
:1002E00008958FEB84B98FE185B917B818B81AB89B
:1002F0001BB808958091C00087FFFCCF8091C60095
:1003000090E008959091C80095FFFCCF8093CE00B7
:1003100008951F920F920FB60F9211245F936F935F
:100320007F938F939F93AF93BF93EF93FF938091AE
:10033000CE008093040380910403843241F4109230
:10034000FC021092FB0281E0809371031EC0E091D9
:10035000FB02F091FC0280910403E35FFC4F808379
:100360008091FB029091FC0201969093FC02809395
:10037000FB028091FB029091FC0264E670E00E9417
:100380001F039093FC028093FB02FF91EF91BF91BA
:10039000AF919F918F917F916F915F910F900FBE61
:1003A0000F901F9018959091C00095FFFCCF8093FF
:1003B000C60008951F920F920FB60F9211248F93CB
:1003C0009F93AF93BF938091C60090E090930C03EE
:1003D00080930B03289A8FE798E3A1E08150904027
:1003E000A040E1F700C00000289880910703909199
:1003F000080301969093080380930703BF91AF9180
:100400009F918F910F900FBE0F901F9018951F9284
:100410000F920FB60F9211240F900FBE0F901F90E6
:10042000189583E390E09093C5008093C4008EE01C
:100430008093C20088E18093C100089583E390E037
:100440009093CD008093CC00EAECF0E08081866050
:10045000808388E18093C9000895109275031092FB
:10046000740310920A031092090310920103109270
:100470007603109206031092050388E58093030328
:1004800080E090E0FC01E35FFC4F20812C3259F4C6
:1004900020910503309106032F5F3F4F30930603F1
:1004A000209305031BC020910503309106032130E2
:1004B0003105A1F420910103121684F020812093CC
:1004C00003032081332727FD309530937503209354
:1004D0007403209101032F5F20930103019684365A
:1004E000910581F608958F929F92AF92BF92CF921D
:1004F000DF92EF92FF920F931F93DF93CF93CDB7CD
:10050000DEB72C970FB6F894DEBF0FBECDBF1092AA
:100510000803109207031092F9021092F8020E9449
:10052000710183E00E940F030E94680028988FEFFA
:1005300099E6A8E181509040A040E1F700C000009A
:100540000E9411028091C10080648093C10080915B
:10055000C10080688093C1000E9401018FB780684C
:100560008FBF80E00E9462018E010F5F1F4F40E04D
:10057000A42E41E0B42E0F2EFDECCF2EFCECDF2E8E
:10058000FCECEF2EFDE3FF2EF02D3AE0832E912CB4
:1005900082E10E94D3010E94120180E065E00E9486
:1005A000F3008091070390910803ADB7BEB71A9787
:1005B0000FB6F894BEBF0FBEADBFEDB7FEB7319614
:1005C00012961C930E931197B382A2829583848313
:1005D000C682D782E086F1860E9446032DB73EB7D9
:1005E000265F3F4F0FB6F8943EBF0FBE2DBFC80128
:1005F0000E94B9008091F8029091F90201969093BF
:10060000F9028093F8028091F8029091F902B40106
:100610000E941F039093F9028093F802B9CF837070
:1006200080658CBD08958EBD0DB407FEFDCF089585
:100630008FEF8EBD0DB407FEFDCF8EB5089597FBED
:10064000092E07260AD077FD04D00CD006D0002052
:100650001AF4709561957F4F0895F6F790958195FE
:100660009F4F0895AA1BBB1B51E107C0AA1FBB1FC8
:10067000A617B70710F0A61BB70B881F991F5A952E
:10068000A9F780959095BC01CD010895AEE0B0E04A
:10069000ECE4F3E00C94FE050D891E8986E08C8362
:1006A0001A8309838FEF9FE79E838D839E01275EC8
:1006B0003F4FCE0101966F89788DA9010E94690391
:1006C000EF81F885E00FF11F10822E96E4E00C9484
:1006D0001A06ACE0B0E0EFE6F3E00C94F0056C0134
:1006E0001B018A01FC0117821682838181FFD1C11F
:1006F0002E010894411C511CF6019381F10193FDD8
:10070000859193FF81911F01882309F4BEC1853231
:1007100039F493FD859193FF81911F01853229F46E
:1007200090E0B6010E946605E7CFEE24FF2420E0AA
:100730002032B0F48B3269F08C3228F4803251F0E0
:10074000833271F40BC08D3239F0803349F421606B
:100750002CC02260246029C0286027C0206125C0E9
:1007600027FD2CC0382F30533A3098F426FF08C0AC
:100770008E2D880FE82EEE0CEE0CE80EE30E15C061
:100780008F2D880FF82EFF0CFF0CF80EF30E206251
:100790000CC08E3221F426FD78C1206406C08C3650
:1007A00011F4206802C0883649F4F10193FD859167
:1007B00093FF81911F01882309F0BACF982F955498
:1007C000933018F09052933028F40C5F1F4FFFE3E2
:1007D000F9830DC0833631F0833771F0833509F02A
:1007E00060C022C0F801808189830E5F1F4F4201E3
:1007F00071E0A72EB12C16C062E0662E712C600E3F
:10080000711EF8018080918026FF03C06E2D70E07C
:1008100002C06FEF7FEFC4012C870E945B055C0173
:1008200083012C852F7717C052E0652E712C600E46
:10083000711EF8018080918026FF03C06E2D70E04C
:1008400002C06FEF7FEFC4012C870E9450055C014E
:100850002C852068830123FD20C008C080E290E041
:10086000B6012C870E946605FA942C858F2D90E0A6
:10087000A816B90698F311C0F40127FD859127FF4A
:1008800081914F0190E0B6012C870E9466052C856E
:10089000F110FA940894A108B108A114B10461F709
:1008A000F1C0843611F0893649F527FF08C0F801F8
:1008B00060817181828193810C5F1F4F09C0F801B3
:1008C00060817181882777FD8095982F0E5F1F4F7B
:1008D0004FE6B42EB22297FF09C09095809570958F
:1008E00061957F4F8F4F9F4FF0E8BF2AA2012AE00A
:1008F00030E00E949205782E741845C0853731F497
:100900003FEEB32EB2222AE030E025C099EFB92E97
:10091000B2228F36C1F0803720F4883509F0B5C097
:100920000DC0803721F0883709F0AFC002C020E148
:10093000B22AB4FE0BC084E0B82A08C0B4FE09C0D5
:10094000E6E0BE2A06C028E030E005C020E130E045
:1009500002C020E132E0B7FE08C0F8016081718179
:10096000828193810C5F1F4F07C0F8016081718104
:1009700080E090E00E5F1F4FA2010E949205782E4A
:100980007418FFE7BF22B6FE0BC02EEFB2227E1412
:1009900038F4B4FE07C0B2FC05C08FEEB82202C026
:1009A000A72C01C0AE2C8B2D90E0B4FE0DC0FE0133
:1009B000E70DF11D2081203319F4E9EEBE2209C0B4
:1009C000A394B2FE06C004C086789070009709F028
:1009D000A3948B2C9924B3FC14C0B0FE0FC0AF14A9
:1009E00028F4E72CEF0CEA18AF2C08C0E72C06C05F
:1009F00080E290E0B6010E946605A394AF14C0F3B4
:100A000004C0AF1410F4FA1801C0FF2484FE0FC014
:100A100080E390E0B6010E94660582FE1FC081FE61
:100A200003C088E590E010C088E790E00DC0C401E5
:100A300086789070009791F081FC02C080E201C03E
:100A40008BE2B7FC8DE290E0B6010E94660506C01D
:100A500080E390E0B6010E946605EA947E14C0F33C
:100A60007A94F201E70DF11D808190E0B6010E94B9
:100A700066057720A9F706C080E290E0B6010E94E3
:100A80006605FA94FF20C1F737CEF601268137813B
:100A900002C02FEF3FEFC9012C96E2E10C940C0647
:100AA000FC010590615070400110D8F78095909539
:100AB0008E0F9F1F0895FC0161507040019001103E
:100AC000D8F7809590958E0F9F1F08950F931F93D1
:100AD000CF93DF938C01EB018B8181FF1BC082FFE1
:100AE0000DC02E813F818C819D812817390764F4C8
:100AF000E881F9810193F983E88306C0E885F985E7
:100B0000802F0995009731F48E819F8101969F83F4
:100B10008E8302C00FEF1FEFC801DF91CF911F91AD
:100B20000F910895FA01AA27283051F1203181F15F
:100B3000E8946F936E7F6E5F7F4F8F4F9F4FAF4FE5
:100B4000B1E03ED0B4E03CD0670F781F891F9A1FF8
:100B5000A11D680F791F8A1F911DA11D6A0F711DAC
:100B6000811D911DA11D20D009F468943F912AE0B8
:100B7000269F11243019305D3193DEF6CF010895A0
:100B8000462F4770405D4193B3E00FD0C9F7F6CFD1
:100B9000462F4F70405D4A3318F0495D31FD405299
:100BA000419302D0A9F7EACFB4E0A695979587952F
:100BB00077956795BA95C9F700976105710508950E
:100BC0009B01AC010A2E06945795479537952795BA
:100BD000BA95C9F7620F731F841F951FA01D089552
:100BE0002F923F924F925F926F927F928F929F923D
:100BF000AF92BF92CF92DF92EF92FF920F931F932B
:100C0000CF93DF93CDB7DEB7CA1BDB0B0FB6F894DB
:100C1000DEBF0FBECDBF09942A88398848885F841B
:100C20006E847D848C849B84AA84B984C884DF808C
:100C3000EE80FD800C811B81AA81B981CE0FD11D70
:100C40000FB6F894DEBF0FBECDBFED010895F89446
:020C5000FFCFD4
:100C5200443A25326420463A252E32660048454CF5
:100C62004C4F4750474C4C000000000000005F0012
:100C7200000007000700147F147F14242A7F2A1221
:100C82002313086462364955225000050300000010
:100C92001C2241000041221C0014083E08140808CE
:100CA2003E0808005030000008080808080060608C
:100CB200000020100804023E5149453E00427F4098
:100CC2000042615149462141454B311814127F10AF
:100CD20027454545393C4A494930017109050336E2
:100CE20049494936064949291E0036360000005650
:100CF2003600000814224100141414141400412276
:100D020014080201510906324979413E7E1111113E
:100D12007E7F494949363E414141227F4141221C61
:100D22007F494949417F090909013E4149497A7F81
:100D32000808087F00417F41002040413F017F08B1
:100D42001422417F404040407F020C027F7F040812
:100D5200107F3E4141413E7F090909063E41512132
:100D62005E7F09192946464949493101017F01013E
:100D72003F4040403F1F2040201F3F4038403F63DC
:100D82001408146307087008076151494543007F3E
:100D920041410002040810200041417F0004020189
:100DA20002044040404040000102040020545454D8
:100DB200787F484444383844444420384444487F87
:100DC2003854545418087E0901020C5252523E7F84
:100DD2000804047800447D40002040443D007F1018
:100DE20028440000417F40007C041804787C0804F9
:100DF200047838444444387C141414080814141831
:100E02007C7C080404084854545420043F44402085
:100E12003C4040207C1C2040201C3C4030403C4454
:100E2200281028440C5050503C4464544C44000850
:100E320036410000007F000000413608001008081B
:080E42001008784641467800D3
:00000001FF
