:100000000C943E000C945B000C945B000C945B0021
:100010000C945B000C945B000C945B000C945B00F4
:100020000C945B000C945B000C945B000C945B00E4
:100030000C945B000C945B000C945B000C945B00D4
:100040000C945B000C945B000C945B000C945B00C4
:100050000C944B020C945B000C9468020C945B00B3
:100060000C945B000C945B000C945B000C945B00A4
:100070000C945B000C945B000C945B0011241FBE7D
:10008000CFEFD0E1DEBFCDBF12E0A0E0B1E0E4E110
:10009000F6E002C005900D92A03EB107D9F712E03C
:1000A000A0EEB2E001C01D92A73EB107E1F70E94A9
:1000B0008C020C9408030C940000882311F02A9AF7
:1000C00001C02A982B98862F0E94D5022B9A08955A
:1000D00029988DE08A95F1F70000299A8FE19EE436
:1000E0000197F1F700C0000080E061E20E945D002E
:1000F00080E066EB0E945D0080E064E00E945D00AD
:1001000080E064E10E945D0080E060E20E945D00AA
:1001100080E06CE00E945D0008950F931F93CF93E1
:10012000DF93082F81E060E00E945D00202F30E027
:1001300020523040E901CC0FDD1FCC0FDD1FC20F74
:10014000D31FC050DF4F85E0089F800111240B5959
:100150001F4F699181E00E945D00C017D107C9F768
:1001600081E060E00E945D00DF91CF911F910F91CF
:100170000895EF92FF92CF93DF93E82EE7017E017F
:10018000F92EE70102C00E948D0089918823D9F7DA
:10019000DF91CF91FF90EF9008950F931F93CF932E
:1001A000DF93082F192FC0E0D0E0F80161918F0193
:1001B00081E00E945D002196F1E0C83FDF07A9F7CA
:1001C000DF91CF911F910F9108951F93162F682FE4
:1001D000606880E00E945D00612F606880E00E949E
:1001E0005D001F9108951F93162F682F606880E0AF
:1001F0000E945D00612F606480E00E945D001F919D
:100200000895CF93DF93C8EFD1E081E060E00E94D2
:100210005D002197D1F780E060E00E94F300DF915C
:10022000CF910895FF920F931F938091E5029091D3
:10023000E60281389105B4F44091E5025091E6025E
:100240002AE230E0429FC001439F900D529F900DE3
:10025000112460E870E00E94E1020AE2061B2AE233
:10026000F22E17C04091E5025091E60226ED3FEFD5
:10027000429FC001439F900D529F900D11248A52BE
:10028000964D60E870E00E94E1029AE2F92EF60EC7
:100290000AE210E0812F63E00E94F300011710F4DE
:1002A0001F1510F01A3219F481E06FEF02C081E0DF
:1002B00060E00E945D001F5F143561F71F910F9190
:1002C000FF9008951F93CF93DF938091E502909163
:1002D000E6028038910504F54091E5025091E6026E
:1002E0002AE230E0429FC001439F900D529F900D43
:1002F000112460E870E00E94E1021AE2161B09C0B6
:10030000812F63E00E94F30081E06FEF0E945D00A7
:100310001F5F1B32A8F325C04091E5025091E60211
:1003200026ED3FEF429FC001439F900D529F900DDD
:1003300011248A52964D60E870E00E94E102EB01C0
:100340001AE2A99609C0812F63E00E94F30081E0C0
:100350006FEF0E945D001F5F212F30E0C217D307AF
:1003600094F7DF91CF911F910895AF92BF92CF92F2
:10037000DF92EF92FF920F931F93182F062FF42E08
:10038000A22FB0E0A61BB109B7FF03C0B095A1959D
:10039000BF4FEF2DF0E0E11BF109F7FF03C0F0952F
:1003A000E195FF4FCC24C394EA17FB0714F0CC244B
:1003B00006C08F2DF22E282F812F102F082FF11617
:1003C00030F4802F022F282F812F1F2DF82EBF2CC5
:1003D000B11AE22FF0E0E01BF109F7FF03C0F0953E
:1003E000E195FF4FAE2EEB2CE694021718F4DD24B6
:1003F000D39416C0DD24DA9413C0CC2019F0802FDA
:10040000612F02C0812F602F0E94F30081E06FEF07
:100410000E945D00EA18E7FE02C00D0DEB0C1F5FA5
:10042000F11658F71F910F91FF90EF90DF90CF904A
:10043000BF90AF9008951F9318E18AE2612F0E9448
:10044000F30081E06FEF0E945D001F5F1B31A9F791
:100450001F9108958FEB84B98FE185B917B818B84B
:100460001AB81BB808958091E3029091E4020196B6
:100470009093E4028093E3028091C00087FFFCCF59
:100480008091C60090E008959091C00095FFFCCF48
:100490008093C60008951F920F920FB60F921124F9
:1004A0008F939F938091C60090E09093E602809393
:1004B000E502289A8FE39CE90197F1F700C000005C
:1004C00028989F918F910F900FBE0F901F901895B5
:1004D0001F920F920FB60F9211248F939F938091CA
:1004E000E3029091E40201969093E4028093E30288
:1004F0009F918F910F900FBE0F901F90189583E3DF
:1005000090E09093C5008093C4008EE08093C20079
:1005100088E18093C10008951092E4021092E302F2
:100520001092E1021092E0020E942A0283E00E94EF
:10053000D1020E94680028988FEF99E6A8E18150C7
:100540009040A040E1F700C000000E947F0280912F
:10055000C10080648093C1008091C1008068809355
:10056000C1000E9401018FB780688FBF80E00E94A8
:100570001B0282E10E9444020E9412018FEF90E769
:10058000A2E081509040A040E1F700C000008091BF
:10059000E0029091E10201969093E1028093E002E3
:1005A000E8CF837080658CBD08958EBD0DB407FEC5
:1005B000FDCF08958FEF8EBD0DB407FEFDCF8EB534
:1005C000089597FB092E07260AD077FD04D00CD09A
:1005D00006D000201AF4709561957F4F0895F6F7C4
:1005E000909581959F4F0895AA1BBB1B51E107C0B1
:1005F000AA1FBB1FA617B70710F0A61BB70B881FB3
:10060000991F5A95A9F780959095BC01CD01089541
:04061000F894FFCF8C
:10061400000000000000005F000000070007001455
:100624007F147F14242A7F2A122313086462364914
:100634005522500005030000001C22410000412205
:100644001C0014083E081408083E08080050300036
:100654000008080808080060600000201008040270
:100664003E5149453E00427F400042615149462186
:1006740041454B311814127F1027454545393C4AF2
:100684004949300171090503364949493606494942
:10069400291E003636000000563600000814224198
:1006A4000014141414140041221408020151090600
:1006B400324979413E7E1111117E7F494949363EC6
:1006C400414141227F4141221C7F494949417F09DF
:1006D4000909013E4149497A7F0808087F00417FA2
:1006E40041002040413F017F081422417F404040A7
:1006F400407F020C027F7F0408107F3E4141413E4F
:100704007F090909063E4151215E7F0919294646A0
:100714004949493101017F01013F4040403F1F20C9
:1007240040201F3F4038403F63140814630708709B
:1007340008076151494543007F4141000204081004
:10074400200041417F000402010204404040404037
:10075400000102040020545454787F48444438383B
:1007640044444420384444487F3854545418087E40
:100774000901020C5252523E7F0804047800447D61
:1007840040002040443D007F1028440000417F4049
:10079400007C041804787C08040478384444443801
:1007A4007C14141408081414187C7C0804040848E5
:1007B40054545420043F4440203C4040207C1C209E
:1007C40040201C3C4030403C44281028440C5050ED
:1007D400503C4464544C44000836410000007F00FF
:1007E4000000413608001008081008784641467891
:00000001FF
