:100000000C9464000C9481000C9481000C94810089
:100010000C9481000C9481000C9481000C9481005C
:100020000C9481000C9481000C9481000C9481004C
:100030000C9481000C9481000C9481000C9481003C
:100040000C9481000C9481000C9481000C9481002C
:100050000C9400020C9481000C942D020C948100ED
:100060000C9481000C9481000C9481000C9481000C
:100070000C94AF010C9481000C948100084AD73B8A
:100080003BCE016E84BCBFFDC12F3D6C74319ABD67
:1000900056833DDA3D00C77F11BED9E4BB4C3E918B
:1000A0006BAAAABE000000803F05A84CCDB2D44E7A
:1000B000B93836A9020C50B9918688083CA6AAAA7C
:1000C0002ABE000000803F0011241FBECFEFD0E108
:1000D000DEBFCDBF12E0A0E0B1E0E0EBF6E102C090
:1000E00005900D92AC3FB107D9F713E0ACEFB2E049
:1000F00001C01D92AC37B107E1F70E948B040C944C
:10010000560B0C940000882311F02A9A01C02A98FB
:100110002B98862F0E9455052B9A089529988DE0DB
:100120008A95F1F70000299A8FE19EE40197F1F793
:1001300000C0000080E061E20E94830080E066EB86
:100140000E94830080E064E00E94830080E064E11C
:100150000E94830080E060E20E94830080E06CE007
:100160000E94830008950F931F93CF93DF93082F6E
:1001700081E060E00E948300202F30E02052304078
:10018000E901CC0FDD1FCC0FDD1FC20FD31FC45EF2
:10019000DE4F85E0089F800111240F571F4F6991A2
:1001A00081E00E948300C017D107C9F781E060E0B9
:1001B0000E948300DF91CF911F910F910895EF92DC
:1001C000FF92CF93DF93E82EE7017E01F92EE7013E
:1001D00002C00E94B30089918823D9F7DF91CF91A3
:1001E000FF90EF9008950F931F93CF93DF93082F05
:1001F000192FC0E0D0E0F80161918F0181E00E94E9
:1002000083002196F1E0C83FDF07A9F7DF91CF9186
:100210001F910F9108951F93162F682F606880E03B
:100220000E948300612F606880E00E9483001F911C
:1002300008951F93162F682F606880E00E94830046
:10024000612F606480E00E9483001F910895CF9326
:10025000DF93C8EFD1E081E060E00E948300219746
:10026000D1F780E060E00E941901DF91CF910895FD
:10027000FF920F931F9380910F0390911003813889
:100280009105B4F440910F03509110032AE230E03D
:10029000429FC001439F900D529F900D112460E832
:1002A00070E00E944E080AE2061B2AE2F22E17C0F6
:1002B00040910F035091100326ED3FEF429FC00184
:1002C000439F900D529F900D11248A52964D60E8E5
:1002D00070E00E944E089AE2F92EF60E0AE210E053
:1002E000812F63E00E941901011710F41F1510F00F
:1002F0001A3219F481E06FEF02C081E060E00E94E1
:1003000083001F5F143561F71F910F91FF900895CF
:100310001F9318E18AE2612F0E94190181E06FEFBB
:100320000E9483001F5F1B31A9F71F9108958FEB77
:1003300084B98FE185B917B818B81AB81BB80895F1
:100340008091C00087FFFCCF8091C60090E00895A7
:100350009091C80095FFFCCF8093CE0008951F9226
:100360000F920FB60F9211245F936F937F938F9329
:100370009F93AF93BF93EF93FF938091CE008093B1
:10038000080380910803843241F410920003109214
:10039000FF0281E0809375031EC0E091FF02F0919F
:1003A000000380910803EF5EFC4F80838091FF0281
:1003B000909100030196909300038093FF02809137
:1003C000FF029091000364E670E00E944E08909353
:1003D00000038093FF02FF91EF91BF91AF919F9136
:1003E0008F917F916F915F910F900FBE0F901F9033
:1003F00018959091C00095FFFCCF8093C60008959A
:100400001F920F920FB60F9211248F939F93AF9369
:10041000BF938091C60090E09093100380930F03E8
:10042000289A8FE798E3A1E081509040A040E1F73F
:1004300000C00000289880910B0390910C03019656
:1004400090930C0380930B03BF91AF919F918F9179
:100450000F900FBE0F901F9018951F920F920FB61E
:100460000F9211240F900FBE0F901F90189583E3E9
:1004700090E09093C5008093C4008EE08093C2000A
:1004800088E18093C100089583E390E09093CD00CC
:100490008093CC00EAECF0E080818660808388E184
:1004A0008093C900089510927903109278031092F6
:1004B0000E0310920D031092050310927A0310920E
:1004C0000A031092090388E58093070380E090E017
:1004D000FC01EF5EFC4F20812C3259F4209109037E
:1004E00030910A032F5F3F4F30930A032093090393
:1004F0001BC02091090330910A0321303105A1F47A
:1005000020910503121684F0208120930703208197
:10051000332727FD3095309379032093780320917A
:1005200005032F5F2093050301968436910581F61C
:1005300008952BED3FE049E450E40E947A0720E063
:1005400030E044E353E40E942B06089520E030E0BD
:1005500044E353E40E947A072BED3FE049E450E482
:100560000E942B0608952F923F924F925F926F92B6
:100570007F928F929F92AF92BF92CF92DF92EF9233
:10058000FF920F931F93DF93CF93CDB7DEB76097A2
:100590000FB6F894DEBF0FBECDBF6D837E838F8311
:1005A000988727013801C601B5010E9461052BED2E
:1005B0003FE049E450E40E947A0720E030E044E361
:1005C00053E40E942B06D62E372E282E99836D8158
:1005D0007E818F8198852BED3FE049E450E40E94B5
:1005E0007A0720E030E044E353E40E942B067B01CD
:1005F0008C01C301B2012BED3FE049E450E40E94BD
:100600007A0720E030E044E353E40E942B06962E64
:10061000A72EB82EC92E29816D2D732D822D922FD4
:100620000E94DD079B01AC01692D7A2D8B2D9C2D3D
:100630002D873E874F87588B0E9428062B013C014F
:100640006E2D7F2D802F912F0E9428066D837E8333
:100650008F839887692D7A2D8B2D9C2D0E94DD0725
:100660004B015C016E2D7F2D802F912F0E94DD07A5
:1006700069877A878B879C8709816D2D732D822DE1
:10068000902F0E9428067B018C012D853E854F8589
:100690005889CA01B901A30192010E947A076983AE
:1006A0007A838B839C836D817E818F819885A50160
:1006B00094010E947A075B016C0169857A858B85BC
:1006C0009C85A30192010E947A07A80197010E94CC
:1006D0007A079B01AC01C601B5010E9461059B012F
:1006E000AC0169817A818B819C810E94D50520E0D3
:1006F00030E044E353E40E947A072BED3FE049E405
:1007000050E40E942B0660960FB6F894DEBF0FBE31
:10071000CDBFCF91DF911F910F91FF90EF90DF90B0
:10072000CF90BF90AF909F908F907F906F905F9091
:100730004F903F902F9008952F923F924F925F924B
:100740006F927F928F929F92AF92BF92CF92DF92E1
:10075000EF92FF920F931F93DF93CF93CDB7DEB746
:1007600028970FB6F894DEBF0FBECDBF3B014C01FA
:1007700029833A834B835C832BED3FE049E450E4CB
:100780000E947A07562E472E1C01C801B7012BED97
:100790003FE049E450E40E947A076D837E838F83B3
:1007A0009887C801B701A40193010E9461052BED50
:1007B0003FE049E450E40E947A0720E030E044E35F
:1007C00053E40E942B0620E030E040E05FE30E940B
:1007D0007A070E94DD077B018C01C601B5012981E2
:1007E0003A814B815C810E9461052BED3FE049E439
:1007F00050E40E947A0720E030E044E353E40E9492
:100800002B0620E030E040E05FE30E947A070E9480
:10081000DD075B016C01A201652F742F822D932DE2
:1008200020E030E044E353E40E942B060E942806B7
:100830001B012C015D814E813F812885652F742F1E
:10084000832F922F20E030E044E353E40E942B06F4
:100850000E9428063B014C01C801B701A80197017D
:100860000E947A077B018C01C601B501A6019501A2
:100870000E947A07A20191010E947A07A4019301C4
:100880000E947A079B01AC01C801B7010E94620572
:100890002B01682EA92E762F272F352D462D5A2D68
:1008A000CA01B9010E94E7077B018C0160E070E09A
:1008B00080E89FE3242D352D462D5A2D0E94610599
:1008C0000E94E7079B01AC01C801B7010E94D50552
:1008D0009B01AC010E9462052DEC38E147EC55E428
:1008E0000E947A0728960FB6F894DEBF0FBECDBFE0
:1008F000CF91DF911F910F91FF90EF90DF90CF90FC
:10090000BF90AF909F908F907F906F905F904F902F
:100910003F902F9008958F929F92AF92BF92CF9267
:10092000DF92EF92FF920F931F93DF93CF93CDB798
:10093000DEB72C970FB6F894DEBF0FBECDBF6BE0CD
:1009400078ED80E592E424E835ED48EB5DE30F2E89
:10095000FDE1EF2EF9EDFF2EF0E50F2FF2E41F2F52
:10096000F02D0F2EF7ECAF2EFFE9BF2EF8EECF2EB5
:10097000FDE3DF2EF02D0E949C0320E030E04AE7EB
:1009800054E40E947A070E9493064B016BE078EDD5
:1009900080E592E424E835ED48EB5DE30E94B30284
:1009A0000E9493067B0110920C0310920B0310928D
:1009B000FD021092FC020E94970183E00E94510503
:1009C0000E948E0028988FEF99E6A8E18150904010
:1009D000A040E1F700C000000E9437028091C100F2
:1009E00080648093C1008091C10080688093C100C1
:1009F0000E9427018FB780688FBF80E00E94880126
:100A00008E010F5F1F4F40E0C42E41E0D42E3AE02C
:100A1000A32EB12C82E10E94F9010E94380180E0EE
:100A200065E00E94190180910B0390910C03ADB712
:100A3000BEB71A970FB6F894BEBF0FBEADBFEDB7E5
:100A4000FEB7319612961C930E931197D382C282F1
:100A50009582848297838683F186E0860E9475085A
:100A60002DB73EB7265F3F4F0FB6F8943EBF0FBE7F
:100A70002DBFC8010E94DF008091FC029091FD0211
:100A800001969093FD028093FC028091FC0290916C
:100A9000FD02B5010E944E089093FD028093FC0276
:100AA000B9CF837080658CBD08958EBD0DB407FEEF
:100AB000FDCF08958FEF8EBD0DB407FEFDCF8EB52F
:100AC00008955058BB27AA270ED0C2C18BD130F051
:100AD00090D120F031F49F3F11F41EF45BC10EF46D
:100AE000E095E7FB51C1E92FD5D180F3BA17620732
:100AF00073078407950718F071F49EF5EDC10EF4A5
:100B0000E0950B2EBA2FA02D0B01B90190010C011D
:100B1000CA01A0011124FF27591B99F0593F50F435
:100B2000503E68F11A16F040A22F232F342F44278D
:100B3000585FF3CF469537952795A795F040539585
:100B4000C9F77EF41F16BA0B620B730B840BBAF055
:100B50009150A1F0FF0FBB1F661F771F881FC2F7C0
:100B60000EC0BA0F621F731F841F48F487957795D4
:100B70006795B795F7959E3F08F0B3CF9395880F8B
:100B800008F09927EE0F9795879508952BD158F087
:100B900080E891E009F49EEF2CD128F040E851E084
:100BA00059F45EEF09C0F6C097C1E92FE07872D121
:100BB00068F3092E052AC1F3261737074807590796
:100BC00038F00E2E07F8E02569F0E025E0640AC051
:100BD000EF6307F8009407FADB01B9019D01DC011E
:100BE000CA01AD01EF9346D033D10AD05F915523AE
:100BF00031F02BED3FE049E450FD49EC63CF08951F
:100C0000DF93DD27B92FBF7740E85FE3161617069D
:100C100048075B0710F4D92F66D19F938F937F937A
:100C20006F9313D2ECE7F0E0B8D012D12F913F913F
:100C30004F915F916BD1DD2349F09058A2EA2AEDE4
:100C40003FE049EC5FE3D0785D274DDFDF9100C1E5
:100C5000D8D0E3950EC10CD0FBC0CBD040F0C2D0B1
:100C600030F021F45F3F19F08FC0511136C192C0AE
:100C700011D198F39923C9F35523B1F3951B550B63
:100C8000BB27AA2762177307840738F09F5F5F4F5F
:100C9000220F331F441FAA1FA9F333D00E2E3AF0A0
:100CA000E0E830D091505040E695001CCAF729D0BA
:100CB000FE2F27D0660F771F881FBB1F2617370709
:100CC0004807AB07B0E809F0BB0B802DBF01FF2739
:100CD00093585F4F2AF09E3F510568F055C0FDC004
:100CE0005F3FECF3983EDCF3869577956795B79573
:100CF000F7959F5FC9F7880F911D9695879597F98E
:100D00000895E1E0660F771F881FBB1F6217730706
:100D10008407BA0720F0621B730B840BBA0BEE1F1B
:100D200088F7E095089504D06894B111D6C008956D
:100D3000B9D088F09F5790F0B92F9927B751A0F0FC
:100D4000D1F0660F771F881F991F1AF0BA95C9F75F
:100D500012C0B13081F0C0D0B1E00895BDC0672F9E
:100D6000782F8827B85F39F0B93FCCF3869577950F
:100D70006795B395D9F73EF49095809570956195F8
:100D80007F4F8F4F9F4F089597F99F6780E870E0DE
:100D900060E008959FEF80EC0895DF93CF931F9359
:100DA0000F93FF92EF92DF927B018C01689405C054
:100DB000DA2EEF01ABD0FE01E894A5912591359193
:100DC00045915591AEF3EF018EDEFE019701A8012A
:100DD000DA9479F7DF90EF90FF900F911F91CF9108
:100DE000DF91089500240A941616170618060906BE
:100DF000089500240A941216130614060506089591
:100E0000C9CF50D0E8F3E894E0E0BB279F57F0F05B
:100E10002AED3FE049EC06C0EE0FBB0F661F771FBF
:100E2000881F28F0B23A62077307840728F0B25A85
:100E3000620B730B840BE3959A9572F7803830F44C
:100E40009A95BB0F661F771F881FD2F7904802C183
:100E5000092E0394000C11F4882352F0BB0F40F4C8
:100E6000BF2B11F460FF04C06F5F7F4F8F4F9F4F08
:100E70000895EF93E0FF06C0A2EA2AED3FE049ECB7
:100E80005FEB31DEE5DF0F90039401FC9058E9EA57
:100E9000F0E0F3C057FD9058440F551F59F05F3FE5
:100EA00071F04795880F97FB991F61F09F3F79F08C
:100EB00087950895121613061406551FF2CF46950E
:100EC000F1DF08C0161617061806991FF1CF869590
:100ED0007105610508940895E894BB276627772774
:100EE000CB0197F908959B01AC0160E070E080E8C8
:100EF0009FE3B1CE0BD0ACCF75DF28F07ADF18F0CE
:100F0000952309F041CF46CF1124E7CFC3DFA0F3EB
:100F1000959FD1F3950F50E0551F629FF001729F8E
:100F2000BB27F00DB11D639FAA27F00DB11DAA1FAD
:100F3000649F6627B00DA11D661F829F2227B00DFA
:100F4000A11D621F739FB00DA11D621F839FA00D85
:100F5000611D221F749F3327A00D611D231F849FD5
:100F6000600D211D822F762F6A2F11249F5750402C
:100F70008AF0E1F088234AF0EE0FFF1FBB1F661FC7
:100F8000771F881F91505040A9F79E3F510570F080
:100F9000FBCEA3CF5F3FECF3983EDCF386957795CD
:100FA0006795B795F795E7959F5FC1F7FE2B880F7B
:100FB000911D9695879597F908959F9322DF0F903D
:100FC00007FCEE5F56CF11F40EF4E4CE41C06ADFA9
:100FD000D0F39923D9F3CEF39F57550B87FF46D013
:100FE0000024A0E640EA900180585695979528F491
:100FF000805C660F771F881F20F026173707480789
:1010000030F4621B730B840B202931294A2BA695DF
:1010100017940794202531254A2758F7660F771F24
:10102000881F20F026173707480730F4620B730B30
:10103000840B200D311D411DA09581F7B901842F2E
:101040009158880F9695879508959B01AC0152CFD2
:101050009F3F31F0915020F4879577956795B7952C
:10106000880F911D9695879597F908959150504056
:10107000660F771F881FD2F708959F938F937F93F2
:101080006F93FF93EF939B01AC0134DFEF91FF91DE
:1010900084DE2F913F914F915F912CCF97FB092ECA
:1010A00007260AD077FD04D00CD006D000201AF411
:1010B000709561957F4F0895F6F7909581959F4FB4
:1010C0000895AA1BBB1B51E107C0AA1FBB1FA6178F
:1010D000B70710F0A61BB70B881F991F5A95A9F7E1
:1010E00080959095BC01CD010895AEE0B0E0EBE7AE
:1010F000F8E00C942D0B0D891E8986E08C831A83F1
:1011000009838FEF9FE79E838D839E01275E3F4F6C
:10111000CE0101966F89788DA9010E949808EF8110
:10112000F885E00FF11F10822E96E4E00C94490B35
:10113000ACE0B0E0EEE9F8E00C941F0B6C011B0191
:101140008A01FC0117821682838181FFD1C12E01A1
:101150000894411C511CF6019381F10193FD859186
:1011600093FF81911F01882309F4BEC1853239F4B0
:1011700093FD859193FF81911F01853229F490E0C1
:10118000B6010E94950AE7CFEE24FF2420E020322A
:10119000B0F48B3269F08C3228F4803251F0833213
:1011A00071F40BC08D3239F0803349F421602CC0CA
:1011B0002260246029C0286027C0206125C027FD47
:1011C0002CC0382F30533A3098F426FF08C08E2DAB
:1011D000880FE82EEE0CEE0CE80EE30E15C08F2DF6
:1011E000880FF82EFF0CFF0CF80EF30E20620CC0D7
:1011F0008E3221F426FD78C1206406C08C3611F4AD
:10120000206802C0883649F4F10193FD859193FF6F
:1012100081911F01882309F0BACF982F95549330FC
:1012200018F09052933028F40C5F1F4FFFE3F983BE
:101230000DC0833631F0833771F0833509F060C01B
:1012400022C0F801808189830E5F1F4F420171E047
:10125000A72EB12C16C062E0662E712C600E711E96
:10126000F8018080918026FF03C06E2D70E002C0DF
:101270006FEF7FEFC4012C870E948A0A5C01830113
:101280002C852F7717C052E0652E712C600E711ED1
:10129000F8018080918026FF03C06E2D70E002C0AF
:1012A0006FEF7FEFC4012C870E947F0A5C012C85C1
:1012B0002068830123FD20C008C080E290E0B601D1
:1012C0002C870E94950AFA942C858F2D90E0A81601
:1012D000B90698F311C0F40127FD859127FF81918C
:1012E0004F0190E0B6012C870E94950A2C85F110E1
:1012F000FA940894A108B108A114B10461F7F1C0EF
:10130000843611F0893649F527FF08C0F80160815D
:101310007181828193810C5F1F4F09C0F801608148
:101320007181882777FD8095982F0E5F1F4F4FE6BC
:10133000B42EB22297FF09C0909580957095619563
:101340007F4F8F4F9F4FF0E8BF2AA2012AE030E085
:101350000E94C10A782E741845C0853731F43FEEDB
:10136000B32EB2222AE030E025C099EFB92EB22286
:101370008F36C1F0803720F4883509F0B5C00DC034
:10138000803721F0883709F0AFC002C020E1B22ACF
:10139000B4FE0BC084E0B82A08C0B4FE09C0E6E081
:1013A000BE2A06C028E030E005C020E130E002C0DF
:1013B00020E132E0B7FE08C0F801608171818281CE
:1013C00093810C5F1F4F07C0F8016081718180E03D
:1013D00090E00E5F1F4FA2010E94C10A782E741880
:1013E000FFE7BF22B6FE0BC02EEFB2227E1438F408
:1013F000B4FE07C0B2FC05C08FEEB82202C0A72C15
:1014000001C0AE2C8B2D90E0B4FE0DC0FE01E70DA7
:10141000F11D2081203319F4E9EEBE2209C0A39406
:10142000B2FE06C004C086789070009709F0A394BD
:101430008B2C9924B3FC14C0B0FE0FC0AF1428F459
:10144000E72CEF0CEA18AF2C08C0E72C06C080E2AE
:1014500090E0B6010E94950AA394AF14C0F304C0B3
:10146000AF1410F4FA1801C0FF2484FE0FC080E30B
:1014700090E0B6010E94950A82FE1FC081FE03C063
:1014800088E590E010C088E790E00DC0C401867840
:101490009070009791F081FC02C080E201C08BE265
:1014A000B7FC8DE290E0B6010E94950A06C080E389
:1014B00090E0B6010E94950AEA947E14C0F37A94F3
:1014C000F201E70DF11D808190E0B6010E94950ABE
:1014D0007720A9F706C080E290E0B6010E94950A45
:1014E000FA94FF20C1F737CEF6012681378102C07A
:1014F0002FEF3FEFC9012C96E2E10C943B0BFC016E
:101500000590615070400110D8F7809590958E0F2E
:101510009F1F0895FC016150704001900110D8F7A1
:10152000809590958E0F9F1F08950F931F93CF93D3
:10153000DF938C01EB018B8181FF1BC082FF0DC00B
:101540002E813F818C819D812817390764F4E881C1
:10155000F9810193F983E88306C0E885F985802F36
:101560000995009731F48E819F8101969F838E8328
:1015700002C00FEF1FEFC801DF91CF911F910F91B4
:101580000895FA01AA27283051F1203181F1E89419
:101590006F936E7F6E5F7F4F8F4F9F4FAF4FB1E066
:1015A0003ED0B4E03CD0670F781F891F9A1FA11D61
:1015B000680F791F8A1F911DA11D6A0F711D811D62
:1015C000911DA11D20D009F468943F912AE0269F27
:1015D00011243019305D3193DEF6CF010895462F86
:1015E0004770405D4193B3E00FD0C9F7F6CF462F67
:1015F0004F70405D4A3318F0495D31FD40524193D0
:1016000002D0A9F7EACFB4E0A6959795879577958C
:101610006795BA95C9F700976105710508959B0113
:10162000AC010A2E06945795479537952795BA959C
:10163000C9F7620F731F841F951FA01D08952F9275
:101640003F924F925F926F927F928F929F92AF9252
:10165000BF92CF92DF92EF92FF920F931F93CF939F
:10166000DF93CDB7DEB7CA1BDB0B0FB6F894DEBF36
:101670000FBECDBF09942A88398848885F846E845C
:101680007D848C849B84AA84B984C884DF80EE80A6
:10169000FD800C811B81AA81B981CE0FD11D0FB6AF
:1016A000F894DEBF0FBECDBFED010895F894FFCFD3
:1016B000443A253264204C3A25326420413A25329E
:1016C000640048454C4C4F4750474C4C00000000CC
:1016D0000000005F00000007000700147F147F1463
:1016E000242A7F2A122313086462364955225000A7
:1016F00005030000001C2241000041221C001408C8
:101700003E081408083E0808005030000008080889
:101710000808006060000020100804023E5149459E
:101720003E00427F400042615149462141454B31D4
:101730001814127F1027454545393C4A4949300164
:10174000710905033649494936064949291E0036BB
:10175000360000005636000008142241001414140C
:10176000141400412214080201510906324979413A
:101770003E7E1111117E7F494949363E4141412249
:101780007F4141221C7F494949417F090909013EA6
:101790004149497A7F0808087F00417F4100204085
:1017A000413F017F081422417F404040407F020CAE
:1017B000027F7F0408107F3E4141413E7F090909B5
:1017C000063E4151215E7F09192946464949493162
:1017D00001017F01013F4040403F1F2040201F3F4B
:1017E0004038403F631408146307087008076151CC
:1017F000494543007F414100020408102000414157
:101800007F00040201020440404040400001020405
:101810000020545454787F48444438384444442089
:10182000384444487F3854545418087E0901020C47
:101830005252523E7F0804047800447D400020400C
:10184000443D007F1028440000417F40007C041884
:1018500004787C0804047838444444387C14141414
:1018600008081414187C7C080404084854545420B4
:10187000043F4440203C4040207C1C2040201C3C35
:101880004030403C44281028440C5050503C4464A4
:10189000544C44000836410000007F0000004136EF
:0C18A0000800100808100878464146783F
:00000001FF
